{
  "contractName": "Withdraw",
  "abi": [
    {
      "inputs": [
        {
          "internalType": "bytes32",
          "name": "root",
          "type": "bytes32"
        }
      ],
      "stateMutability": "payable",
      "type": "constructor",
      "payable": true
    },
    {
      "inputs": [],
      "name": "merkleRoot",
      "outputs": [
        {
          "internalType": "bytes32",
          "name": "",
          "type": "bytes32"
        }
      ],
      "stateMutability": "view",
      "type": "function",
      "constant": true
    },
    {
      "inputs": [
        {
          "internalType": "address",
          "name": "",
          "type": "address"
        }
      ],
      "name": "userWithdrawn",
      "outputs": [
        {
          "internalType": "bool",
          "name": "",
          "type": "bool"
        }
      ],
      "stateMutability": "view",
      "type": "function",
      "constant": true
    },
    {
      "stateMutability": "payable",
      "type": "receive",
      "payable": true
    },
    {
      "inputs": [
        {
          "internalType": "bytes32[]",
          "name": "proof",
          "type": "bytes32[]"
        },
        {
          "internalType": "address payable",
          "name": "receiver",
          "type": "address"
        },
        {
          "internalType": "uint256",
          "name": "amount",
          "type": "uint256"
        }
      ],
      "name": "withdraw",
      "outputs": [],
      "stateMutability": "nonpayable",
      "type": "function"
    }
  ],
  "bytecode": "0x60806040526040516108f43803806108f48339818101604052810190610025919061006d565b806001819055505061009a565b600080fd5b6000819050919050565b61004a81610037565b811461005557600080fd5b50565b60008151905061006781610041565b92915050565b60006020828403121561008357610082610032565b5b600061009184828501610058565b91505092915050565b61084b806100a96000396000f3fe6080604052600436106100385760003560e01c80632eb4a7ab14610044578063477a883a1461006f578063cc392a9c146100985761003f565b3661003f57005b600080fd5b34801561005057600080fd5b506100596100d5565b6040516100669190610371565b60405180910390f35b34801561007b57600080fd5b506100966004803603810190610091919061048f565b6100db565b005b3480156100a457600080fd5b506100bf60048036038101906100ba9190610541565b6102c7565b6040516100cc9190610589565b60405180910390f35b60015481565b600015156000808473ffffffffffffffffffffffffffffffffffffffff1673ffffffffffffffffffffffffffffffffffffffff16815260200190815260200160002060009054906101000a900460ff1615151461016d576040517f08c379a000000000000000000000000000000000000000000000000000000000815260040161016490610601565b60405180910390fd5b6000828260405160200161018292919061068a565b60405160208183030381529060405280519060200120905060005b858590508110156101e0576101cb828787848181106101bf576101be6106b6565b5b905060200201356102e7565b915080806101d890610714565b91505061019d565b5060015481146101ef57600080fd5b60008373ffffffffffffffffffffffffffffffffffffffff166108fc849081150290604051600060405180830381858888f19350505050905080610268576040517f08c379a000000000000000000000000000000000000000000000000000000000815260040161025f906107a8565b60405180910390fd5b60016000808673ffffffffffffffffffffffffffffffffffffffff1673ffffffffffffffffffffffffffffffffffffffff16815260200190815260200160002060006101000a81548160ff021916908315150217905550505050505050565b60006020528060005260406000206000915054906101000a900460ff1681565b600080828410156103225783836040516020016103059291906107e9565b60405160208183030381529060405280519060200120905061034e565b82846040516020016103359291906107e9565b6040516020818303038152906040528051906020012090505b8091505092915050565b6000819050919050565b61036b81610358565b82525050565b60006020820190506103866000830184610362565b92915050565b600080fd5b600080fd5b600080fd5b600080fd5b600080fd5b60008083601f8401126103bb576103ba610396565b5b8235905067ffffffffffffffff8111156103d8576103d761039b565b5b6020830191508360208202830111156103f4576103f36103a0565b5b9250929050565b600073ffffffffffffffffffffffffffffffffffffffff82169050919050565b6000610426826103fb565b9050919050565b6104368161041b565b811461044157600080fd5b50565b6000813590506104538161042d565b92915050565b6000819050919050565b61046c81610459565b811461047757600080fd5b50565b60008135905061048981610463565b92915050565b600080600080606085870312156104a9576104a861038c565b5b600085013567ffffffffffffffff8111156104c7576104c6610391565b5b6104d3878288016103a5565b945094505060206104e687828801610444565b92505060406104f78782880161047a565b91505092959194509250565b600061050e826103fb565b9050919050565b61051e81610503565b811461052957600080fd5b50565b60008135905061053b81610515565b92915050565b6000602082840312156105575761055661038c565b5b60006105658482850161052c565b91505092915050565b60008115159050919050565b6105838161056e565b82525050565b600060208201905061059e600083018461057a565b92915050565b600082825260208201905092915050565b7f5573657220616c7265616479206861732077697468647261776e000000000000600082015250565b60006105eb601a836105a4565b91506105f6826105b5565b602082019050919050565b6000602082019050818103600083015261061a816105de565b9050919050565b60008160601b9050919050565b600061063982610621565b9050919050565b600061064b8261062e565b9050919050565b61066361065e8261041b565b610640565b82525050565b6000819050919050565b61068461067f82610459565b610669565b82525050565b60006106968285610652565b6014820191506106a68284610673565b6020820191508190509392505050565b7f4e487b7100000000000000000000000000000000000000000000000000000000600052603260045260246000fd5b7f4e487b7100000000000000000000000000000000000000000000000000000000600052601160045260246000fd5b600061071f82610459565b91507fffffffffffffffffffffffffffffffffffffffffffffffffffffffffffffffff8203610751576107506106e5565b5b600182019050919050565b7f4661696c656420746f2073656e64204574686572000000000000000000000000600082015250565b60006107926014836105a4565b915061079d8261075c565b602082019050919050565b600060208201905081810360008301526107c181610785565b9050919050565b6000819050919050565b6107e36107de82610358565b6107c8565b82525050565b60006107f582856107d2565b60208201915061080582846107d2565b602082019150819050939250505056fea2646970667358221220c1b8cc67f877a9eef4cac9362ec3bdbf6677205bb8b2d8bde9c112f16db46c1a64736f6c634300080d0033",
  "immutableReferences": {},
  "source": "// SPDX-License-Identifier: MIT\npragma solidity >=0.4.22 <0.9.0;\n\ncontract Withdraw {\n    \n    mapping(address => bool) public userWithdrawn;\n    bytes32 public merkleRoot;\n\n    constructor(bytes32 root) payable{ \n        merkleRoot = root;\n    }\n\n    function computeSha(bytes32 left, bytes32 right ) internal pure returns(bytes32){\n        bytes32 digest;\n        \n        if(left < right)\n            digest = keccak256(abi.encodePacked(left, right));\n        else\n            digest = keccak256(abi.encodePacked(right, left));\n        \n        return digest;\n    }\n\n    function withdraw(bytes32[] calldata proof, address payable receiver, uint256 amount) public { // amount is the sum in wei to be paid\n        // verify if already withdrawn\n        require(userWithdrawn[receiver] == false, \"User already has withdrawn\");\n        \n        // verify root\n        bytes32 digest = keccak256(abi.encodePacked(receiver, amount));\n        for(uint i = 0; i < proof.length; i++){\n            digest = computeSha(digest, proof[i]);\n        }\n        require(digest == merkleRoot);\n\n        // send\n        bool sent = receiver.send(amount);\n        require(sent, \"Failed to send Ether\");\n\n        // set withrawn to true\n        userWithdrawn[receiver] = true;\n    }\n\n    receive() external payable{ // receive ether if no balance to make withdrawals\n\n    }\n}\n",
  "sourcePath": "/home/alexe/Projects/Personal/merkle-tree-react/contracts/Withdraw.sol",
  "compiler": {
    "name": "solc",
    "version": "0.8.13+commit.abaa5c0e.Emscripten.clang"
  },
  "schemaVersion": "3.4.6",
  "updatedAt": "2022-03-31T17:52:41.947Z",
  "networkType": "ethereum",
  "devdoc": {
    "kind": "dev",
    "methods": {},
    "version": 1
  },
  "userdoc": {
    "kind": "user",
    "methods": {},
    "version": 1
  }
}